:100000000C942A000C9447000C9447000C94470071
:100010000C9447000C9447000C9447000C94470044
:100020000C9447000C9447000C9447000C94470034
:100030000C9447000C9447000C9447000C94470024
:100040000C9447000C9447000C9447000C94470014
:100050000C94470011241FBECFE5D8E0DEBFCDBF12
:1000600010E0A0E6B0E0E6E6FAE102C005900D92ED
:10007000A03CB107D9F720E0A0ECB0E001C01D9290
:10008000AE3DB207E1F70E9474090C94310D0C9457
:100090000000CF92DF92EF92FF920F931F93FC012B
:1000A00090E001C09F5FDF01A90FB11D8C918032EC
:1000B000C9F38D3219F49F5F81E001C080E000E058
:1000C00010E0980122C050ED540F5A30E8F450E08F
:1000D00040535109052E000C660B770B000F111FC2
:1000E000221F331F68017901CC0CDD1CEE1CFF1CA4
:1000F000CC0CDD1CEE1CFF1C0C0D1D1D2E1D3F1D10
:10010000040F151F261F371F9F5FDF01A90FB11DA9
:100110004C914111D8CF813039F43095209510950C
:1001200001951F4F2F4F3F4FC901B8011F910F91EC
:10013000FF90EF90DF90CF900895BF92CF92DF9223
:10014000EF92FF920F931F93CF93DF93CDB7DEB75C
:10015000E2970FB6F894DEBF0FBECDBF7C01CB0196
:10016000BA016901611571058105910539F480E3D2
:10017000F701808381E0F901808349C0992374F4F9
:100180002DE2F701208390958095709561957F4FC2
:100190008F4F9F4FBB24B39401E002C0B12C00E00D
:1001A00010E013C02AE030E040E050E00E94D60C9E
:1001B000E1E0F0E0EC0FFD1FE10FF11D605D6083F9
:1001C000622F732F842F952F1F5F61157105810595
:1001D000910541F7BB2029F081E0810FF601808372
:1001E00002C0F60110838FEF810F0FC0D701A00F5F
:1001F000B11DE1E0F0E0EC0FFD1FE80FF11D87FD00
:10020000FA9590819C930F5F815088237CF7E2964A
:100210000FB6F894DEBF0FBECDBFDF91CF911F9117
:100220000F91FF90EF90DF90CF90BF900895BF9215
:10023000CF92DF92EF92FF920F931F93CF93DF93B2
:10024000CDB7DEB7C456D1090FB6F894DEBF0FBEE6
:10025000CDBFFC017B0180818983B12CDD24D39447
:10026000C12C81E071E059C060ED690F6A30D0F4B3
:100270006C2D70E0DB01AA0FBB1F660F771F660FA6
:10028000771F660F771FA60FB71F61E070E06C0F36
:100290007D1FA60FB71FAD0DB11D9C93D3948F5F2B
:1002A00071E03BC0713001F5DA01AB0DB11D9C93DB
:1002B000B3946C2D70E0DB01AA0FBB1F660F771F94
:1002C000660F771F660F771FA60FB71F61E070E0FC
:1002D0006C0F7D1FA60FB71FAD0DB11D1C928F5F58
:1002E000C394D12C70E019C06C2D70E0DB01AA0F13
:1002F000BB1F660F771F660F771F660F771FA60F4E
:10030000B71F61E070E06C0F7D1FA60FB71FAD0D2A
:10031000B11D9C93D3948F5F71E0DF01A80FB11DD5
:100320009C919111A1CF8C2D90E0FC01EE0FFF1F4D
:10033000880F991F880F991F880F991FE80FF91FC1
:1003400081E090E08C0F9D1FE80FF91FED0DF11D6E
:10035000108281E08C0DF9018083F801B082D12CEC
:1003600022C02D2D30E08901000F111F000F111F39
:100370000E0D1F1DC901880F991F220F331F220F59
:10038000331F220F331F820F931F21E030E02C0F09
:100390003D1F820F931F0E944900F8016083718303
:1003A00082839383D394CD14E0F6CC59DF4F0FB6FC
:1003B000F894DEBF0FBECDBFDF91CF911F910F919B
:1003C000FF90EF90DF90CF90BF9008950F931F9311
:1003D000CF93DF93EC0150E090E02BC0541328C082
:1003E0009923E9F025C0292F30E0D901AA0FBB1FBE
:1003F000AA0FBB1FAC0FBD1FF9013196EE0FFF1FF7
:10040000EE0FFF1FEC0FFD1F008111812281338150
:100410000D931D932D933C9313979F5F01C0952FD0
:10042000FB0120819217F8F221502083515091E076
:100430005F5FFB018081581788F2DF91CF911F9198
:100440000F910895CF93DF93EC01DB0120E080E072
:1004500015C0241312C0882341F00FC0FE01E90F1C
:10046000F11D318130839F5F01C0922F3C91931722
:10047000A8F331503C93215081E02F5F9C912917C4
:1004800040F3DF91CF910895CF92DF92EF92FF92E8
:100490000F9369017A010B3249F018F40A3281F0A6
:1004A0001BC00D3241F00F3291F016C0620F731F66
:1004B000841F951F14C0621B730B840B950B0FC018
:1004C0009B01AC01C701B6010E94C60C08C00E9486
:1004D000D60CCA01B90103C060E070E0CB010F91F6
:1004E000FF90EF90DF90CF9008959C0180E009C0CD
:1004F000F901E80FF11D90819A3231F09F3221F01D
:100500008F5F8617A8F38EE40895CF93DF931F9231
:10051000CDB7DEB7BE016F5F7F4F0E94E208811149
:1005200004C08981813019F403C082E001C080E0F9
:100530000F90DF91CF910895CF93C0E009C0EC2FC9
:10054000F0E0EB57FF4F61E080810E94F507CF5F3D
:10055000C430A8F3CF910895BF92CF92DF92EF926B
:10056000FF920F931F93CF93DF930F2EFEE4BF2EC6
:10057000F02DD12C3BC0ED2CF12CF701EB57FF4FA8
:10058000C08060E08C2D0E94F507D0E028C00D2FC0
:1005900010E0F801EF57FF4FC0818C2F0E948502B9
:1005A00081111CC0C701880F991F880F991F875799
:1005B0009F4FFC01E00FF11FB0808FE097E20197A1
:1005C000F1F700C000008C2F0E9485028823D9F328
:1005D0008FE097E20197F1F700C00000DF5FD430B1
:1005E000B0F261E08C2D0E94F507D39493E09D1545
:1005F00010F68B2DDF91CF911F910F91FF90EF900F
:10060000DF90CF90BF9008951F93CF93DF93162F65
:1006100090E0FC01EE0FFF1F9C01220F331F220F01
:10062000331F220F331FE20FF31FE054FF4F2281CD
:100630002130F1F4EF0160E080810E94F507612F25
:100640008B810E945E0961E089810E94F5078FEC31
:1006500097E00197F1F700C0000060E089810E94F7
:10066000F5078FEC97E00197F1F700C000006BC031
:10067000211169C0EC01CC0FDD1F880F991F880F75
:10068000991F880F991FC80FD91FC054DF4F60E012
:1006900088810E94F507612F661F6627661F8F817C
:1006A0000E94F50716FB662760F98E810E94F50708
:1006B00015FB662760F98D810E94F50714FB6627FC
:1006C00060F98C810E94F50761E089810E94F5073D
:1006D0008FEC97E00197F1F700C0000060E089819E
:1006E0000E94F5078FEC97E00197F1F700C000003A
:1006F00013FB662760F98F810E94F50712FB6627BE
:1007000060F98E810E94F50711FB662760F98D81E3
:100710000E94F507612F61708C810E94F50761E0EE
:1007200089810E94F5078FEC97E00197F1F700C0EF
:10073000000060E089810E94F5078FEC97E0019747
:10074000F1F700C00000DF91CF911F9108951F9332
:10075000CF93DF93162F90E0FC01EE0FFF1F9C015B
:10076000220F331F220F331F220F331FE20FF31FFD
:10077000E054FF4F22812130F1F4EF0161E08081EC
:100780000E94F507612F8B810E945E0961E08981DB
:100790000E94F5078FEC97E00197F1F700C0000089
:1007A00060E089810E94F5078FEC97E00197F1F7EF
:1007B00000C000006BC0211169C0EC01CC0FDD1F2F
:1007C000880F991F880F991F880F991FC80FD91F6D
:1007D000C054DF4F61E088810E94F507612F661FDA
:1007E0006627661F8F810E94F50716FB662760F952
:1007F0008E810E94F50715FB662760F98D810E94A6
:10080000F50714FB662760F98C810E94F50761E00B
:1008100089810E94F5078FEC97E00197F1F700C0FE
:10082000000060E089810E94F5078FEC97E0019756
:10083000F1F700C0000013FB662760F98F810E946A
:10084000F50712FB662760F98E810E94F50711FB00
:10085000662760F98D810E94F507612F61708C8198
:100860000E94F50761E089810E94F5078FEC97E00F
:100870000197F1F700C0000060E089810E94F50750
:100880008FEC97E00197F1F700C00000DF91CF9166
:100890001F91089540E064C0842F90E0FC01EE0FAA
:1008A000FF1F9C01220F331F220F331F220F331F04
:1008B000E20FF31FE054FF4F10861186FC01E35452
:1008C000FF4F20812130E9F4DC01AA0FBB1FFC019E
:1008D000EE0FFF1FEE0FFF1FEE0FFF1FEA0FFB1FB4
:1008E000E054FF4F2283A80FB91FAC54BF4F8C9127
:1008F000808311968C911197818312968C918383BA
:100900002EC021112CC0FC01EE0FFF1FDC01AA0F2D
:10091000BB1FAA0FBB1FAA0FBB1FAE0FBF1FA05448
:10092000BF4F12961C921297E80FF91FEE0FFF1F90
:10093000EE55FF4F80818C93818111968C93119796
:10094000828114968C931497838115968C931597B6
:10095000848116968C931697858117968C934F5F9A
:1009600080916000481708F497CF08950F931F9364
:10097000CF930E944A042FE788E391E02150804002
:100980009040E1F700C00000C0E06FC00C2F10E005
:10099000F801EE0FFF1FC801880F991F880F991FDC
:1009A000880F991FE80FF91FE054FF4F82818130B3
:1009B00059F5F801E756FF4F8081882319F08130FF
:1009C00031F009C068E38C2F0E94040304C06CE37B
:1009D0008C2F0E940403F801E156FF4F60818C2F99
:1009E0000E94040361E08C2F0E9404038FEC97E0C7
:1009F0000197F1F700C00000F801E456FF4F608155
:100A00008C2F0E94040330C081112EC062E08C2F15
:100A10000E940403F801E756FF4F8081882319F0F4
:100A2000813031F009C068E28C2F0E94040304C0B9
:100A30006CE28C2F0E940403F801E156FF4F6081A5
:100A40008C2F0E94040361E08C2F0E9404038FEC22
:100A500097E00197F1F700C00000F801E456FF4F5E
:100A600060818C2F0E940403CF5F80916000C817C3
:100A700008F48CCFCF911F910F910895CF93C82F79
:100A80000E94A7038C2F90E0FC01EE0FFF1F880F40
:100A9000991F880F991F880F991FE80FF91FE054BD
:100AA000FF4F81858F5F8187CF910895CF93C82FA6
:100AB00061E00E9404038C2F90E0FC01EE0FFF1F09
:100AC000880F991F880F991F880F991FE80FF91F2A
:100AD000E054FF4F10861186CF910895282F30E003
:100AE000F901EE0FFF1F220F331F220F331F220FBA
:100AF000331FE20FF31FE054FF4F608741876623E7
:100B000019F0613031F00895642F60680E94040389
:100B10000895642F606C0E94040308951F93CF937F
:100B2000DF93182F0E94A703C12FD0E0FE01EE0F24
:100B3000FF1FCE01880F991F880F991F880F991FDB
:100B4000E80FF91FE054FF4F81858F5F8187803167
:100B500038F1CE01880F991F880F991F880F991FB0
:100B6000FE01EE0FFF1FE80FF91FE054FF4F8085D5
:100B7000811116C040E061E0812F0E946E05CE0118
:100B8000880F991F880F991F880F991FFE01EE0F7C
:100B9000FF1FE80FF91FE054FF4F81E080871186A7
:100BA000CE01880F991F880F991F880F991FFE018A
:100BB000EE0FFF1FE80FF91FE054FF4F81858031D2
:100BC00028F1CE01880F991F880F991F880F991F50
:100BD000FE01EE0FFF1FE80FF91FE054FF4F808565
:100BE0008130A1F440E060E0812F0E946E05CE01CB
:100BF000880F991FCC0FDD1FCC0FDD1FCC0FDD1F21
:100C0000C80FD91FC054DF4F18861986DF91CF91C6
:100C10001F910895CF92DF92EF92FF920F931F934F
:100C2000CF93DF93CDB7DEB760970FB6F894DEBFF2
:100C30000FBECDBF082F6A017B014115510561052B
:100C4000710521F460E30E948E053CC077235CF4BB
:100C50006DE20E948E05F094E094D094C094C11C83
:100C6000D11CE11CF11C10E015C0C701B6012AE03F
:100C700030E040E050E00E94D60CE1E0F0E0EC0F04
:100C8000FD1FE10FF11D605D6083C22ED32EE42EA7
:100C9000F52E1F5FC114D104E104F10431F7FF24E4
:100CA000FA94F10E0DC0E1E0F0E0EC0FFD1FEF0D46
:100CB000F11DF7FCFA956081802F0E948E05FA9451
:100CC000FF208CF760960FB6F894DEBF0FBECDBF45
:100CD000DF91CF911F910F91FF90EF90DF90CF9018
:100CE0000895CF92DF92EF92FF92CF93C82F6A01BF
:100CF0007B01CB01BA010E946C0BAB01BC018C2FB4
:100D00000E940A0620E030E0A901C701B6010E9456
:100D1000670B882324F4F7FAF094F7F8F0946EE266
:100D20008C2F0E948E05C701B6010E946C0B0E9499
:100D3000A40B9B01AC01C701B6010E94FA0A20E096
:100D400030E048EC52E40E94590C0E946C0BAB015D
:100D5000BC018C2F0E940A06CF91FF90EF90DF908C
:100D6000CF9008958F929F92AF92BF92CF92DF92D1
:100D7000EF92FF92CF93C82F6A017B01CB01BA019A
:100D80000E94730B4B015C010E94A20B9B01AC0102
:100D9000C701B6010E94FA0A20E030E0A9010E94D2
:100DA000540C181634F4B701A6018C2F0E9471065A
:100DB00005C0B501A4018C2F0E940A06CF91FF90B7
:100DC000EF90DF90CF90BF90AF909F908F9008955D
:100DD000982F9695969596958770613009F455C031
:100DE00020F0623009F4A1C008959130C1F028F0DC
:100DF000923039F19330B9F108954AB321E030E0EF
:100E0000B90102C0660F771F8A95E2F7CB01942FD4
:100E1000982B9ABB9BB3809589238BBB089547B3CE
:100E200021E030E0B90102C0660F771F8A95E2F732
:100E3000CB01942F982B97BB98B38095892388BBBF
:100E4000089544B321E030E0B90102C0660F771F76
:100E50008A95E2F7CB01942F982B94BB95B380959C
:100E6000892385BB089541B321E030E0B90102C078
:100E7000660F771F8A95E2F7CB01942F982B91BBD1
:100E800092B38095892382BB08959130C1F028F0F8
:100E9000923039F19330B9F108954AB321E030E04E
:100EA000B90102C0660F771F8A95E2F7CB018095E2
:100EB000942F98239ABB9BB389238BBB089547B388
:100EC00021E030E0B90102C0660F771F8A95E2F792
:100ED000CB018095942F982397BB98B3892388BB27
:100EE000089544B321E030E0B90102C0660F771FD6
:100EF0008A95E2F7CB018095942F982394BB95B304
:100F0000892385BB089541B321E030E0B90102C0D7
:100F1000660F771F8A95E2F7CB018095942F98236F
:100F200091BB92B3892382BB08959130C1F028F020
:100F3000923039F19330B9F108954AB321E030E0AD
:100F4000B90102C0660F771F8A95E2F7CB01962F91
:100F5000909594239ABB9BB3892B8BBB089547B381
:100F600021E030E0B90102C0660F771F8A95E2F7F1
:100F7000CB01962F9095942397BB98B3892B88BB70
:100F8000089544B321E030E0B90102C0660F771F35
:100F90008A95E2F7CB01962F9095942394BB95B355
:100FA000892B85BB089541B321E030E0B90102C02F
:100FB000660F771F8A95E2F7CB01962F90959423C1
:100FC00091BB92B3892B82BB0895CF93C0E009C037
:100FD000EC2FF0E0EF59FF4F60818C2F0E94E80664
:100FE000CF5FC032A8F3CF910895982F969596952C
:100FF0009695282F2770803208F0CCC0662309F41C
:1010000064C0613009F0C8C09130E9F030F092302E
:1010100081F1933009F443C0C1C08AB390E0022E3D
:1010200002C0959587950A94E2F780FFB9C03BB35B
:1010300081E090E002C0880F991F2A95E2F7832B88
:101040008BBB80E0089587B390E0022E02C0959597
:1010500087950A94E2F780FFA5C038B381E090E05D
:1010600002C0880F991F2A95E2F7832B88BB80E086
:10107000089584B390E0022E02C0959587950A9456
:10108000E2F780FF91C035B381E090E002C0880FA5
:10109000991F2A95E2F7832B85BB80E0089581B3E1
:1010A00090E0022E02C0959587950A94E2F780FFA2
:1010B0007DC032B381E090E002C0880F991F2A956D
:1010C000E2F7832B82BB80E008959130F1F030F09D
:1010D000923091F1933009F446C06AC08AB390E02F
:1010E000022E02C0959587950A94E2F780FF62C0B0
:1010F0003BB381E090E002C0880F991F2A95E2F788
:10110000809583238BBB80E0089587B390E0022E07
:1011100002C0959587950A94E2F780FF4DC038B3D9
:1011200081E090E002C0880F991F2A95E2F7809530
:10113000832388BB80E0089584B390E0022E02C030
:10114000959587950A94E2F780FF38C035B381E022
:1011500090E002C0880F991F2A95E2F780958323BB
:1011600085BB80E0089581B390E0022E02C0959582
:1011700087950A94E2F780FF23C032B381E090E0C4
:1011800002C0880F991F2A95E2F78095832382BBBE
:1011900080E0089582E0089585E0089580E0089554
:1011A00083E0089583E0089583E0089583E008953F
:1011B00080E0089583E0089583E0089583E0089532
:1011C00083E00895982F969596959695282F2770E9
:1011D000803208F065C06115710509F463C0913073
:1011E000E9F030F0923081F1933009F443C05CC0F3
:1011F0008AB390E0022E02C0959587950A94E2F793
:1012000080FD54C089B390E002C0959587952A95DA
:10121000E2F78170FB01808380E0089587B390E05E
:10122000022E02C0959587950A94E2F780FD40C092
:1012300086B390E002C0959587952A95E2F7817074
:10124000FB01808380E0089584B390E0022E02C009
:10125000959587950A94E2F780FD2CC083B390E0C2
:1012600002C0959587952A95E2F78170FB018083EE
:1012700080E0089581B390E0022E02C09595879595
:101280000A94E2F780FD18C080B390E002C0959503
:1012900087952A95E2F78170FB01808380E00895AD
:1012A00082E0089584E0089580E0089583E0089541
:1012B00083E0089583E0089583E00895813049F044
:1012C00028F0823049F0833051F00CC06BBB80E0D5
:1012D000089568BB80E0089565BB80E0089562BB17
:1012E00080E0089581E00895CF93DF93CDB7DEB716
:1012F000C954D1090FB6F894DEBF0FBECDBF0E940E
:10130000E5070E94B6040E949C02FE01319684E12A
:10131000DF011D928A95E9F7749688E2DF011D923C
:101320008A95E9F71DAEB9968AE0DF011D928A958C
:10133000E9F729961FAE29972A961FAE2A97C12C46
:10134000D12C812C912C54010E94AC02182F8E3488
:10135000D9F3833609F442C1682F80E00E943E052C
:101360001D3311F4DD24D394D11056C0C1100FC029
:101370002A968FAD2A97E1E0F0E0EC0FFD1FE80F11
:10138000F11D10838F5F2A968FAF2A97DDCF80E003
:101390000E9456051B3231F01D3221F01A3211F035
:1013A0001F3231F5C501B4010E94A40BAB01BC0191
:1013B00080E00E94B2069E01275B3F4FB501A40169
:1013C000CE0101960E949D00612F80E00E948E0553
:1013D0002A968FAD2A97E1E0F0E0EC0FFD1FE80FB1
:1013E000F11D10838F5F2A968FAF2A97C12CACCF47
:1013F000612F80E00E948E052A968FAD2A97E1E04A
:10140000F0E0EC0FFD1FE80FF11D10838F5F2A96AF
:101410008FAF2A97C12C98CF2A968FAD2A97E1E0FB
:10142000F0E0EC0FFD1FE80FF11D10828E01085B4C
:101430001F4F9E01235C3F4FAE01425C5F4FBE01D8
:101440006B5E7F4FCE0101960E94170129966FAD0A
:101450002997CE01CE960E947502182F8E3409F07E
:1014600074C021C00EAD298D3A8D4B8D5C8D6D8978
:101470007E898F89988D0E9444024B015C016D8B9F
:101480007E8B8F8B988F41E0BE01635C7F4FCE01D6
:1014900045960E94E60140E0BE01685B7F4FCE01A9
:1014A000CE960E94220229968FAD29978111DACF1C
:1014B00076C029966FAD2997CE01CE960E9475020F
:1014C000182F90E0EEE3F0E0EC0FFD1FE80FF91F9E
:1014D0000081FC013196EE0FFF1FEE0FFF1F21E090
:1014E00030E02C0F3D1FE20FF31F24893589468918
:1014F0005789880F991F880F991FEE24E394F12CC8
:10150000EC0EFD1EE80EF91ED70154966D917D91EB
:101510008D919C9157970E9444024B015C01F70109
:10152000648B758B868B978B41E0410FBE01635CAA
:101530007F4FCE0145960E94E601412FBE01685BB8
:101540007F4FCE01CE960E9422021E3409F0B1CF09
:1015500021C00EAD298D3A8D4B8D5C8D6D897E89B4
:101560008F89988D0E9444024B015C016D8B7E8BAC
:101570008F8B988F41E0BE01635C7F4FCE01459613
:101580000E94E60140E0BE01685B7F4FCE01CE962F
:101590000E94220229968FAD29978111DACF2996D0
:1015A0008FAD29978111D0CE40E061E00E946E0599
:1015B0006D897E898F89988D0E94A40BAB01BC0137
:1015C00080E00E94B2068D889E88AF88B88C2A96EB
:1015D0001FAE2A97CC24C394D12CB6CE80E00E94B3
:1015E00056052A961FAE2A97C12CD12C812C912CFE
:1015F0005401AACE5058BB27AA270E94120B0C9464
:101600001A0C0E940C0C38F00E94130C20F039F4D4
:101610009F3F19F426F40C94090C0EF4E095E7FBB7
:101620000C94030CE92F0E942B0C58F3BA17620795
:1016300073078407950720F079F4A6F50C944D0CF8
:101640000EF4E0950B2EBA2FA02D0B01B9019001DD
:101650000C01CA01A0011124FF27591B99F0593F21
:1016600050F4503E68F11A16F040A22F232F342F69
:101670004427585FF3CF469537952795A795F040B7
:101680005395C9F77EF41F16BA0B620B730B840BCC
:10169000BAF09150A1F0FF0FBB1F661F771F881F84
:1016A000C2F70EC0BA0F621F731F841F48F48795DC
:1016B00077956795B795F7959E3F08F0B0CF9395CE
:1016C000880F08F09927EE0F9795879508950E9447
:1016D000DF0B08F481E008950E94730B6894B11148
:1016E0000C944E0C08950E94330C88F09F5798F08C
:1016F000B92F9927B751B0F0E1F0660F771F881F17
:10170000991F1AF0BA95C9F714C0B13091F00E9430
:101710004D0CB1E008950C944D0C672F782F88275D
:10172000B85F39F0B93FCCF3869577956795B39557
:10173000D9F73EF490958095709561957F4F8F4FC6
:101740009F4F0895E89409C097FB3EF490958095CB
:10175000709561957F4F8F4F9F4F9923A9F0F92F77
:1017600096E9BB279395F695879577956795B795F5
:10177000F111F8CFFAF4BB0F11F460FF1BC06F5FDB
:101780007F4F8F4F9F4F16C0882311F096E911C0ED
:10179000772321F09EE8872F762F05C0662371F00E
:1017A00096E8862F70E060E02AF09A95660F771F22
:1017B000881FDAF7880F9695879597F90895990FFE
:1017C0000008550FAA0BE0E8FEEF16161706E8070B
:1017D000F907C0F012161306E407F50798F0621B2C
:1017E000730B840B950B39F40A2661F0232B242B01
:1017F000252B21F408950A2609F4A140A6958FEF20
:10180000811D811D089597F99F6780E870E060E071
:1018100008959FEF80EC089500240A941616170689
:1018200018060906089500240A94121613061406D1
:1018300005060895092E0394000C11F4882352F034
:10184000BB0F40F4BF2B11F460FF04C06F5F7F4FEC
:101850008F4F9F4F089557FD9058440F551F59F0D3
:101860005F3F71F04795880F97FB991F61F09F3F8D
:1018700079F087950895121613061406551FF2CFB6
:101880004695F1DF08C0161617061806991FF1CF06
:1018900086957105610508940895E894BB2766272D
:1018A0007727CB0197F908950E94DF0B08F48FEF9B
:1018B00008950E946C0C0C941A0C0E940C0C38F0C9
:1018C0000E94130C20F0952311F00C94030C0C943F
:1018D000090C11240C944E0C0E942B0C70F3959F54
:1018E000C1F3950F50E0551F629FF001729FBB2717
:1018F000F00DB11D639FAA27F00DB11DAA1F649FB3
:101900006627B00DA11D661F829F2227B00DA11D65
:10191000621F739FB00DA11D621F839FA00D611DEB
:10192000221F749F3327A00D611D231F849F600D0C
:10193000211D822F762F6A2F11249F5750409AF035
:10194000F1F088234AF0EE0FFF1FBB1F661F771FC1
:10195000881F91505040A9F79E3F510580F00C948C
:10196000030C0C944E0C5F3FE4F3983ED4F3869541
:1019700077956795B795F795E7959F5FC1F7FE2B2C
:10198000880F911D9695879597F90895DB018F93A0
:101990009F930E94040DBF91AF91A29F800D911D56
:1019A000A39F900DB29F900D11240895052E97FBD3
:1019B0001EF400940E94ED0C57FD07D00E940F0DFD
:1019C00007FC03D04EF40C94ED0C509540953095E7
:1019D00021953F4F4F4F5F4F08959095809570959B
:1019E00061957F4F8F4F9F4F0895A29FB001B39F86
:1019F000C001A39F700D811D1124911DB29F700D18
:101A0000811D1124911D08950E94F50CA59F900D34
:101A1000B49F900DA49F800D911D11240895A1E203
:101A20001A2EAA1BBB1BFD010DC0AA1FBB1FEE1F58
:101A3000FF1FA217B307E407F50720F0A21BB30BA3
:101A4000E40BF50B661F771F881F991F1A9469F71F
:101A500060957095809590959B01AC01BD01CF017B
:061A60000895F894FFCF89
:101A6600030000000000000000000000000000006D
:101A76000000000000000000000202020202020252
:101A8600001A1B1C1D0C0D0E0F3738392F34353636
:101A96002A3132332D63303D2B0000000606060C3A
:101AA6000C0C010203040506101114151617040583
:101AB6001C1D1E1F00010102030312130100000179
:00000001FF
